:100000000C943E000C9450000C9450000C94500042
:100010000C9450000C9450000C9450000C94500020
:100020000C9450000C9450000C9450000C94500010
:100030000C9450000C9452000C9450000C945000FE
:100040000C9450000C9450000C9450000C945000F0
:100050000C9450000C9450000C9450000C945000E0
:100060000C9450000C9450000C9450000C945000D0
:100070000C9450000C9450000C94500011241FBE9E
:10008000CFEFD8E0DEBFCDBF21E0A0E0B1E001C0FE
:100090001D92A130B207E1F70E948D000C94D000B0
:1000A0000C9400001F921FB61F9211248F93809111
:1000B0000001811109C081E0809300011BB88F917C
:1000C0001F901FBE1F9018951092000180E18BB900
:1000D000F6CF1092850010928400089590E09093DE
:1000E00089008093880090938B0080938A00E0E8D9
:1000F000F0E08081816A8083E1E8F0E080818260C5
:100100008083109282000895F8948AB1806F8AB932
:1001100081B1836081B9789408950E94840010921F
:1001200085001092840080E00E946E002FEF83ED26
:1001300090E3215080409040E1F700C000008FE341
:100140000E946E002FEF83ED90E32150804090409D
:10015000E1F700C000008FE70E946E002FEF83EDF3
:1001600090E3215080409040E1F700C000008FEB09
:100170000E946E002FEF83ED90E32150804090406D
:10018000E1F700C000008EEF0E946E002FEF83EDBC
:1001900090E3215080409040E1F700C00000C3CFC1
:0401A000F894FFCF01
:00000001FF
